{
  "address": "0xdf0e3c3ee4c89cB7a3B8F508aBFeee6C91BC8B00",
  "abi": [
    {
      "inputs": [
        {
          "internalType": "string",
          "name": "_name",
          "type": "string"
        }
      ],
      "stateMutability": "nonpayable",
      "type": "constructor"
    },
    {
      "anonymous": false,
      "inputs": [
        {
          "indexed": true,
          "internalType": "address",
          "name": "emitter",
          "type": "address"
        },
        {
          "indexed": false,
          "internalType": "string",
          "name": "eventName",
          "type": "string"
        },
        {
          "indexed": false,
          "internalType": "uint256",
          "name": "eventValue",
          "type": "uint256"
        }
      ],
      "name": "LogicEvent",
      "type": "event"
    },
    {
      "anonymous": false,
      "inputs": [
        {
          "indexed": true,
          "internalType": "address",
          "name": "previousOwner",
          "type": "address"
        },
        {
          "indexed": true,
          "internalType": "address",
          "name": "newOwner",
          "type": "address"
        }
      ],
      "name": "OwnershipTransferred",
      "type": "event"
    },
    {
      "inputs": [
        {
          "internalType": "string",
          "name": "_eventName",
          "type": "string"
        },
        {
          "internalType": "uint256",
          "name": "_eventValue",
          "type": "uint256"
        }
      ],
      "name": "eventTest",
      "outputs": [],
      "stateMutability": "nonpayable",
      "type": "function"
    },
    {
      "inputs": [],
      "name": "name",
      "outputs": [
        {
          "internalType": "string",
          "name": "",
          "type": "string"
        }
      ],
      "stateMutability": "view",
      "type": "function"
    },
    {
      "inputs": [],
      "name": "owner",
      "outputs": [
        {
          "internalType": "address",
          "name": "",
          "type": "address"
        }
      ],
      "stateMutability": "view",
      "type": "function"
    },
    {
      "inputs": [
        {
          "internalType": "string",
          "name": "_str",
          "type": "string"
        },
        {
          "internalType": "uint256",
          "name": "_num",
          "type": "uint256"
        }
      ],
      "name": "ownerFunc",
      "outputs": [],
      "stateMutability": "payable",
      "type": "function"
    },
    {
      "inputs": [],
      "name": "ownerNumer",
      "outputs": [
        {
          "internalType": "uint256",
          "name": "",
          "type": "uint256"
        }
      ],
      "stateMutability": "view",
      "type": "function"
    },
    {
      "inputs": [],
      "name": "ownerStr",
      "outputs": [
        {
          "internalType": "string",
          "name": "",
          "type": "string"
        }
      ],
      "stateMutability": "view",
      "type": "function"
    },
    {
      "inputs": [],
      "name": "ownerValue",
      "outputs": [
        {
          "internalType": "uint256",
          "name": "",
          "type": "uint256"
        }
      ],
      "stateMutability": "view",
      "type": "function"
    },
    {
      "inputs": [
        {
          "internalType": "string",
          "name": "_str",
          "type": "string"
        },
        {
          "internalType": "uint256",
          "name": "_num",
          "type": "uint256"
        }
      ],
      "name": "publicFunc",
      "outputs": [],
      "stateMutability": "payable",
      "type": "function"
    },
    {
      "inputs": [],
      "name": "publicNumber",
      "outputs": [
        {
          "internalType": "uint256",
          "name": "",
          "type": "uint256"
        }
      ],
      "stateMutability": "view",
      "type": "function"
    },
    {
      "inputs": [],
      "name": "publicStr",
      "outputs": [
        {
          "internalType": "string",
          "name": "",
          "type": "string"
        }
      ],
      "stateMutability": "view",
      "type": "function"
    },
    {
      "inputs": [],
      "name": "publicValue",
      "outputs": [
        {
          "internalType": "uint256",
          "name": "",
          "type": "uint256"
        }
      ],
      "stateMutability": "view",
      "type": "function"
    },
    {
      "inputs": [],
      "name": "renounceOwnership",
      "outputs": [],
      "stateMutability": "nonpayable",
      "type": "function"
    },
    {
      "inputs": [
        {
          "internalType": "address",
          "name": "newOwner",
          "type": "address"
        }
      ],
      "name": "transferOwnership",
      "outputs": [],
      "stateMutability": "nonpayable",
      "type": "function"
    }
  ],
  "transactionHash": "0x879694d07a22e340dba59cc6be51d39cdcb35189b3798b40c2e990e16ca05d7f",
  "args": [
    "MyLogicPool"
  ],
  "solcInputHash": "d5ffa9e948986689fb2c42bcef5df7e5",
  "bytecode": "0x60806040523480156200001157600080fd5b506040516200131c3803806200131c833981810160405281019062000037919062000265565b620000576200004b6200007760201b60201c565b6200007f60201b60201c565b80600190805190602001906200006f92919062000143565b50506200041a565b600033905090565b60008060009054906101000a900473ffffffffffffffffffffffffffffffffffffffff169050816000806101000a81548173ffffffffffffffffffffffffffffffffffffffff021916908373ffffffffffffffffffffffffffffffffffffffff1602179055508173ffffffffffffffffffffffffffffffffffffffff168173ffffffffffffffffffffffffffffffffffffffff167f8be0079c531659141344cd1fd0a4f28419497f9722a3daafe3b4186f6b6457e060405160405180910390a35050565b82805462000151906200033f565b90600052602060002090601f016020900481019282620001755760008555620001c1565b82601f106200019057805160ff1916838001178555620001c1565b82800160010185558215620001c1579182015b82811115620001c0578251825591602001919060010190620001a3565b5b509050620001d09190620001d4565b5090565b5b80821115620001ef576000816000905550600101620001d5565b5090565b60006200020a6200020484620002d3565b620002aa565b9050828152602081018484840111156200022357600080fd5b6200023084828562000309565b509392505050565b600082601f8301126200024a57600080fd5b81516200025c848260208601620001f3565b91505092915050565b6000602082840312156200027857600080fd5b600082015167ffffffffffffffff8111156200029357600080fd5b620002a18482850162000238565b91505092915050565b6000620002b6620002c9565b9050620002c4828262000375565b919050565b6000604051905090565b600067ffffffffffffffff821115620002f157620002f0620003da565b5b620002fc8262000409565b9050602081019050919050565b60005b83811015620003295780820151818401526020810190506200030c565b8381111562000339576000848401525b50505050565b600060028204905060018216806200035857607f821691505b602082108114156200036f576200036e620003ab565b5b50919050565b620003808262000409565b810181811067ffffffffffffffff82111715620003a257620003a1620003da565b5b80604052505050565b7f4e487b7100000000000000000000000000000000000000000000000000000000600052602260045260246000fd5b7f4e487b7100000000000000000000000000000000000000000000000000000000600052604160045260246000fd5b6000601f19601f8301169050919050565b610ef2806200042a6000396000f3fe6080604052600436106100c25760003560e01c806392e4063e1161007f578063ad36429b11610059578063ad36429b14610216578063ca26fb3514610241578063e566c67d1461026c578063f2fde38b14610297576100c2565b806392e4063e146101a4578063a0471d9b146101c0578063a501dd6b146101eb576100c2565b806306fdde03146100c7578063368cddbe146100f2578063398267e91461011b57806359f1275514610137578063715018a6146101625780638da5cb5b14610179575b600080fd5b3480156100d357600080fd5b506100dc6102c0565b6040516100e99190610ba7565b60405180910390f35b3480156100fe57600080fd5b5061011960048036038101906101149190610a9b565b61034e565b005b61013560048036038101906101309190610a43565b6103a2565b005b34801561014357600080fd5b5061014c610443565b6040516101599190610c39565b60405180910390f35b34801561016e57600080fd5b50610177610449565b005b34801561018557600080fd5b5061018e6104d1565b60405161019b9190610b8c565b60405180910390f35b6101be60048036038101906101b99190610a9b565b6104fa565b005b3480156101cc57600080fd5b506101d5610523565b6040516101e29190610c39565b60405180910390f35b3480156101f757600080fd5b50610200610529565b60405161020d9190610ba7565b60405180910390f35b34801561022257600080fd5b5061022b6105b7565b6040516102389190610c39565b60405180910390f35b34801561024d57600080fd5b506102566105bd565b6040516102639190610ba7565b60405180910390f35b34801561027857600080fd5b5061028161064b565b60405161028e9190610c39565b60405180910390f35b3480156102a357600080fd5b506102be60048036038101906102b99190610a1a565b610651565b005b600180546102cd90610d44565b80601f01602080910402602001604051908101604052809291908181526020018280546102f990610d44565b80156103465780601f1061031b57610100808354040283529160200191610346565b820191906000526020600020905b81548152906001019060200180831161032957829003601f168201915b505050505081565b3373ffffffffffffffffffffffffffffffffffffffff167f01ebaff46a9e7708b7db09e736f8751b1dc37cf5efd70c392761fa1ec07aa5f88383604051610396929190610bc9565b60405180910390a25050565b6103aa610749565b73ffffffffffffffffffffffffffffffffffffffff166103c86104d1565b73ffffffffffffffffffffffffffffffffffffffff161461041e576040517f08c379a000000000000000000000000000000000000000000000000000000000815260040161041590610c19565b60405180910390fd5b82826005919061042f929190610815565b508060068190555034600781905550505050565b60045481565b610451610749565b73ffffffffffffffffffffffffffffffffffffffff1661046f6104d1565b73ffffffffffffffffffffffffffffffffffffffff16146104c5576040517f08c379a00000000000000000000000000000000000000000000000000000000081526004016104bc90610c19565b60405180910390fd5b6104cf6000610751565b565b60008060009054906101000a900473ffffffffffffffffffffffffffffffffffffffff16905090565b816002908051906020019061051092919061089b565b5080600381905550346004819055505050565b60075481565b6005805461053690610d44565b80601f016020809104026020016040519081016040528092919081815260200182805461056290610d44565b80156105af5780601f10610584576101008083540402835291602001916105af565b820191906000526020600020905b81548152906001019060200180831161059257829003601f168201915b505050505081565b60065481565b600280546105ca90610d44565b80601f01602080910402602001604051908101604052809291908181526020018280546105f690610d44565b80156106435780601f1061061857610100808354040283529160200191610643565b820191906000526020600020905b81548152906001019060200180831161062657829003601f168201915b505050505081565b60035481565b610659610749565b73ffffffffffffffffffffffffffffffffffffffff166106776104d1565b73ffffffffffffffffffffffffffffffffffffffff16146106cd576040517f08c379a00000000000000000000000000000000000000000000000000000000081526004016106c490610c19565b60405180910390fd5b600073ffffffffffffffffffffffffffffffffffffffff168173ffffffffffffffffffffffffffffffffffffffff16141561073d576040517f08c379a000000000000000000000000000000000000000000000000000000000815260040161073490610bf9565b60405180910390fd5b61074681610751565b50565b600033905090565b60008060009054906101000a900473ffffffffffffffffffffffffffffffffffffffff169050816000806101000a81548173ffffffffffffffffffffffffffffffffffffffff021916908373ffffffffffffffffffffffffffffffffffffffff1602179055508173ffffffffffffffffffffffffffffffffffffffff168173ffffffffffffffffffffffffffffffffffffffff167f8be0079c531659141344cd1fd0a4f28419497f9722a3daafe3b4186f6b6457e060405160405180910390a35050565b82805461082190610d44565b90600052602060002090601f016020900481019282610843576000855561088a565b82601f1061085c57803560ff191683800117855561088a565b8280016001018555821561088a579182015b8281111561088957823582559160200191906001019061086e565b5b5090506108979190610921565b5090565b8280546108a790610d44565b90600052602060002090601f0160209004810192826108c95760008555610910565b82601f106108e257805160ff1916838001178555610910565b82800160010185558215610910579182015b8281111561090f5782518255916020019190600101906108f4565b5b50905061091d9190610921565b5090565b5b8082111561093a576000816000905550600101610922565b5090565b600061095161094c84610c79565b610c54565b90508281526020810184848401111561096957600080fd5b610974848285610d02565b509392505050565b60008135905061098b81610e8e565b92915050565b60008083601f8401126109a357600080fd5b8235905067ffffffffffffffff8111156109bc57600080fd5b6020830191508360018202830111156109d457600080fd5b9250929050565b600082601f8301126109ec57600080fd5b81356109fc84826020860161093e565b91505092915050565b600081359050610a1481610ea5565b92915050565b600060208284031215610a2c57600080fd5b6000610a3a8482850161097c565b91505092915050565b600080600060408486031215610a5857600080fd5b600084013567ffffffffffffffff811115610a7257600080fd5b610a7e86828701610991565b93509350506020610a9186828701610a05565b9150509250925092565b60008060408385031215610aae57600080fd5b600083013567ffffffffffffffff811115610ac857600080fd5b610ad4858286016109db565b9250506020610ae585828601610a05565b9150509250929050565b610af881610cc6565b82525050565b6000610b0982610caa565b610b138185610cb5565b9350610b23818560208601610d11565b610b2c81610e05565b840191505092915050565b6000610b44602683610cb5565b9150610b4f82610e16565b604082019050919050565b6000610b67602083610cb5565b9150610b7282610e65565b602082019050919050565b610b8681610cf8565b82525050565b6000602082019050610ba16000830184610aef565b92915050565b60006020820190508181036000830152610bc18184610afe565b905092915050565b60006040820190508181036000830152610be38185610afe565b9050610bf26020830184610b7d565b9392505050565b60006020820190508181036000830152610c1281610b37565b9050919050565b60006020820190508181036000830152610c3281610b5a565b9050919050565b6000602082019050610c4e6000830184610b7d565b92915050565b6000610c5e610c6f565b9050610c6a8282610d76565b919050565b6000604051905090565b600067ffffffffffffffff821115610c9457610c93610dd6565b5b610c9d82610e05565b9050602081019050919050565b600081519050919050565b600082825260208201905092915050565b6000610cd182610cd8565b9050919050565b600073ffffffffffffffffffffffffffffffffffffffff82169050919050565b6000819050919050565b82818337600083830152505050565b60005b83811015610d2f578082015181840152602081019050610d14565b83811115610d3e576000848401525b50505050565b60006002820490506001821680610d5c57607f821691505b60208210811415610d7057610d6f610da7565b5b50919050565b610d7f82610e05565b810181811067ffffffffffffffff82111715610d9e57610d9d610dd6565b5b80604052505050565b7f4e487b7100000000000000000000000000000000000000000000000000000000600052602260045260246000fd5b7f4e487b7100000000000000000000000000000000000000000000000000000000600052604160045260246000fd5b6000601f19601f8301169050919050565b7f4f776e61626c653a206e6577206f776e657220697320746865207a65726f206160008201527f6464726573730000000000000000000000000000000000000000000000000000602082015250565b7f4f776e61626c653a2063616c6c6572206973206e6f7420746865206f776e6572600082015250565b610e9781610cc6565b8114610ea257600080fd5b50565b610eae81610cf8565b8114610eb957600080fd5b5056fea264697066735822122097c025796fd004fc0a75a16de45e20d4417e77afb529899af02f87791959746a64736f6c63430008040033",
  "devdoc": {
    "kind": "dev",
    "methods": {
      "owner()": {
        "details": "Returns the address of the current owner."
      },
      "renounceOwnership()": {
        "details": "Leaves the contract without owner. It will not be possible to call `onlyOwner` functions anymore. Can only be called by the current owner. NOTE: Renouncing ownership will leave the contract without an owner, thereby removing any functionality that is only available to the owner."
      },
      "transferOwnership(address)": {
        "details": "Transfers ownership of the contract to a new account (`newOwner`). Can only be called by the current owner."
      }
    },
    "version": 1
  },
  "userdoc": {
    "kind": "user",
    "methods": {},
    "version": 1
  },
  "storageLayout": {
    "storage": [
      {
        "astId": 7,
        "contract": "contracts/LogicContract.sol:LogicContract",
        "label": "_owner",
        "offset": 0,
        "slot": "0",
        "type": "t_address"
      },
      {
        "astId": 954,
        "contract": "contracts/LogicContract.sol:LogicContract",
        "label": "name",
        "offset": 0,
        "slot": "1",
        "type": "t_string_storage"
      },
      {
        "astId": 956,
        "contract": "contracts/LogicContract.sol:LogicContract",
        "label": "publicStr",
        "offset": 0,
        "slot": "2",
        "type": "t_string_storage"
      },
      {
        "astId": 958,
        "contract": "contracts/LogicContract.sol:LogicContract",
        "label": "publicNumber",
        "offset": 0,
        "slot": "3",
        "type": "t_uint256"
      },
      {
        "astId": 960,
        "contract": "contracts/LogicContract.sol:LogicContract",
        "label": "publicValue",
        "offset": 0,
        "slot": "4",
        "type": "t_uint256"
      },
      {
        "astId": 962,
        "contract": "contracts/LogicContract.sol:LogicContract",
        "label": "ownerStr",
        "offset": 0,
        "slot": "5",
        "type": "t_string_storage"
      },
      {
        "astId": 964,
        "contract": "contracts/LogicContract.sol:LogicContract",
        "label": "ownerNumer",
        "offset": 0,
        "slot": "6",
        "type": "t_uint256"
      },
      {
        "astId": 966,
        "contract": "contracts/LogicContract.sol:LogicContract",
        "label": "ownerValue",
        "offset": 0,
        "slot": "7",
        "type": "t_uint256"
      }
    ],
    "types": {
      "t_address": {
        "encoding": "inplace",
        "label": "address",
        "numberOfBytes": "20"
      },
      "t_string_storage": {
        "encoding": "bytes",
        "label": "string",
        "numberOfBytes": "32"
      },
      "t_uint256": {
        "encoding": "inplace",
        "label": "uint256",
        "numberOfBytes": "32"
      }
    }
  }
}